{
  "contractName": "ERC721",
  "abi": [
    {
      "anonymous": false,
      "inputs": [
        {
          "indexed": true,
          "internalType": "address",
          "name": "owner",
          "type": "address"
        },
        {
          "indexed": true,
          "internalType": "address",
          "name": "approved",
          "type": "address"
        },
        {
          "indexed": true,
          "internalType": "uint256",
          "name": "tokenId",
          "type": "uint256"
        }
      ],
      "name": "Approval",
      "type": "event"
    },
    {
      "anonymous": false,
      "inputs": [
        {
          "indexed": true,
          "internalType": "address",
          "name": "from",
          "type": "address"
        },
        {
          "indexed": true,
          "internalType": "address",
          "name": "to",
          "type": "address"
        },
        {
          "indexed": true,
          "internalType": "uint256",
          "name": "tokenId",
          "type": "uint256"
        }
      ],
      "name": "Transfer",
      "type": "event"
    },
    {
      "inputs": [
        {
          "internalType": "address",
          "name": "_from",
          "type": "address"
        },
        {
          "internalType": "address",
          "name": "_to",
          "type": "address"
        },
        {
          "internalType": "uint256",
          "name": "_tokenId",
          "type": "uint256"
        }
      ],
      "name": "transferFrom",
      "outputs": [],
      "stateMutability": "payable",
      "type": "function"
    },
    {
      "inputs": [
        {
          "internalType": "address",
          "name": "_owner",
          "type": "address"
        }
      ],
      "name": "balanceOf",
      "outputs": [
        {
          "internalType": "uint256",
          "name": "",
          "type": "uint256"
        }
      ],
      "stateMutability": "view",
      "type": "function"
    },
    {
      "inputs": [
        {
          "internalType": "uint256",
          "name": "_tokenId",
          "type": "uint256"
        }
      ],
      "name": "ownerOf",
      "outputs": [
        {
          "internalType": "address",
          "name": "",
          "type": "address"
        }
      ],
      "stateMutability": "view",
      "type": "function"
    }
  ],
  "bytecode": "0x608060405234801561001057600080fd5b50610a91806100206000396000f3fe6080604052600436106100345760003560e01c806323b872dd146100395780636352211e1461005557806370a0823114610092575b600080fd5b610053600480360381019061004e919061072a565b6100cf565b005b34801561006157600080fd5b5061007c6004803603810190610077919061077d565b61023c565b60405161008991906107b9565b60405180910390f35b34801561009e57600080fd5b506100b960048036038101906100b491906107d4565b61031c565b6040516100c69190610810565b60405180910390f35b80838073ffffffffffffffffffffffffffffffffffffffff163073ffffffffffffffffffffffffffffffffffffffff16636352211e846040518263ffffffff1660e01b81526004016101219190610810565b602060405180830381865afa15801561013e573d6000803e3d6000fd5b505050506040513d601f19601f820116820180604052508101906101629190610840565b73ffffffffffffffffffffffffffffffffffffffff16146101b8576040517f08c379a00000000000000000000000000000000000000000000000000000000081526004016101af906108f0565b60405180910390fd5b83600073ffffffffffffffffffffffffffffffffffffffff168173ffffffffffffffffffffffffffffffffffffffff161415610229576040517f08c379a000000000000000000000000000000000000000000000000000000000815260040161022090610982565b60405180910390fd5b6102348686866103d7565b505050505050565b600080600083815260200190815260200160002060009054906101000a900473ffffffffffffffffffffffffffffffffffffffff16600073ffffffffffffffffffffffffffffffffffffffff168173ffffffffffffffffffffffffffffffffffffffff1614156102e1576040517f08c379a00000000000000000000000000000000000000000000000000000000081526004016102d890610982565b60405180910390fd5b60008084815260200190815260200160002060009054906101000a900473ffffffffffffffffffffffffffffffffffffffff16915050919050565b600081600073ffffffffffffffffffffffffffffffffffffffff168173ffffffffffffffffffffffffffffffffffffffff16141561038f576040517f08c379a000000000000000000000000000000000000000000000000000000000815260040161038690610982565b60405180910390fd5b600160008473ffffffffffffffffffffffffffffffffffffffff1673ffffffffffffffffffffffffffffffffffffffff16815260200190815260200160002054915050919050565b80838073ffffffffffffffffffffffffffffffffffffffff163073ffffffffffffffffffffffffffffffffffffffff16636352211e846040518263ffffffff1660e01b81526004016104299190610810565b602060405180830381865afa158015610446573d6000803e3d6000fd5b505050506040513d601f19601f8201168201806040525081019061046a9190610840565b73ffffffffffffffffffffffffffffffffffffffff16146104c0576040517f08c379a00000000000000000000000000000000000000000000000000000000081526004016104b7906108f0565b60405180910390fd5b83600073ffffffffffffffffffffffffffffffffffffffff168173ffffffffffffffffffffffffffffffffffffffff161415610531576040517f08c379a000000000000000000000000000000000000000000000000000000000815260040161052890610982565b60405180910390fd5b60018060008873ffffffffffffffffffffffffffffffffffffffff1673ffffffffffffffffffffffffffffffffffffffff168152602001908152602001600020600082825461058091906109d1565b9250508190555060018060008773ffffffffffffffffffffffffffffffffffffffff1673ffffffffffffffffffffffffffffffffffffffff16815260200190815260200160002060008282546105d69190610a05565b925050819055508460008086815260200190815260200160002060006101000a81548173ffffffffffffffffffffffffffffffffffffffff021916908373ffffffffffffffffffffffffffffffffffffffff160217905550838573ffffffffffffffffffffffffffffffffffffffff168773ffffffffffffffffffffffffffffffffffffffff167fddf252ad1be2c89b69c2b068fc378daa952ba7f163c4a11628f55a4df523b3ef60405160405180910390a4505050505050565b600080fd5b600073ffffffffffffffffffffffffffffffffffffffff82169050919050565b60006106c182610696565b9050919050565b6106d1816106b6565b81146106dc57600080fd5b50565b6000813590506106ee816106c8565b92915050565b6000819050919050565b610707816106f4565b811461071257600080fd5b50565b600081359050610724816106fe565b92915050565b60008060006060848603121561074357610742610691565b5b6000610751868287016106df565b9350506020610762868287016106df565b925050604061077386828701610715565b9150509250925092565b60006020828403121561079357610792610691565b5b60006107a184828501610715565b91505092915050565b6107b3816106b6565b82525050565b60006020820190506107ce60008301846107aa565b92915050565b6000602082840312156107ea576107e9610691565b5b60006107f8848285016106df565b91505092915050565b61080a816106f4565b82525050565b60006020820190506108256000830184610801565b92915050565b60008151905061083a816106c8565b92915050565b60006020828403121561085657610855610691565b5b60006108648482850161082b565b91505092915050565b600082825260208201905092915050565b7f4552433732313a2043616e2774207472616e73666572206120746f6b656e207460008201527f6865206164647265737320646f6573206e6f74206f776e2e0000000000000000602082015250565b60006108da60388361086d565b91506108e58261087e565b604082019050919050565b60006020820190508181036000830152610909816108cd565b9050919050565b7f4552433732313a20496e76616c696420746f6b656e20666f722061646472657360008201527f73206f7220696e76616c69642061646472657373000000000000000000000000602082015250565b600061096c60348361086d565b915061097782610910565b604082019050919050565b6000602082019050818103600083015261099b8161095f565b9050919050565b7f4e487b7100000000000000000000000000000000000000000000000000000000600052601160045260246000fd5b60006109dc826106f4565b91506109e7836106f4565b9250828210156109fa576109f96109a2565b5b828203905092915050565b6000610a10826106f4565b9150610a1b836106f4565b9250827fffffffffffffffffffffffffffffffffffffffffffffffffffffffffffffffff03821115610a5057610a4f6109a2565b5b82820190509291505056fea2646970667358221220848c7202042d585b3ec034119a9c668372d251fc115b391b440d4664e9079c5864736f6c634300080b0033",
  "immutableReferences": {},
  "source": "// SPDX-License-Identifier: MIT\r\npragma solidity ^0.8.0;\r\n\r\n/*\r\n    Minting Function:\r\n    a. nft to point to an address\r\n    b. keep track of the token ids\r\n    c. keep track of token owners addresses to token ids\r\n    d. keep track of how many tokens an owner address has\r\n    e. create an event that emits a transfer log - contract address, where it is being minted to, the id\r\n\r\n*/\r\ncontract ERC721 {\r\n    // from: Contract address\r\n    // to: user\r\n    // tokenId: token address\r\n    // indexed: careful use, uses more GAS !!!!!!!!!!!!!!!!!!!\r\n    event Transfer(\r\n        address indexed from,\r\n        address indexed to,\r\n        uint256 indexed tokenId\r\n    );\r\n\r\n    event Approval(\r\n        address indexed owner,\r\n        address indexed approved,\r\n        uint256 indexed tokenId\r\n    );\r\n\r\n    // Mapping from token id to the owner;\r\n    mapping(uint256 => address) private _tokenOwner;\r\n\r\n    // Mapping from owner to number of ownder tokens;\r\n    mapping(address => uint256) private _ownedTokensCount;\r\n\r\n    // Mapping from token id to approved addresses\r\n    mapping(uint256 => address) private _tokenApprovals;\r\n\r\n    function _exists_check(uint256 tokenId) internal view returns (bool) {\r\n        address owner = _tokenOwner[tokenId];\r\n        return owner != address(0);\r\n    }\r\n\r\n    // requires that the token does not already exist\r\n    modifier _exists(uint256 tokenId) {\r\n        require(!_exists_check(tokenId), \"ERC721: Token already minted\");\r\n        _;\r\n    }\r\n\r\n    // Invalid token for address or invalid address\r\n    modifier _invalid_address(address _owner) {\r\n        require(\r\n            _owner != address(0),\r\n            \"ERC721: Invalid token for address or invalid address\"\r\n        );\r\n        _;\r\n    }\r\n\r\n    // Can't transfer a token the address does not own\r\n    modifier _token_exists_for_owner(uint256 _tokenId, address _owner) {\r\n        require(\r\n            this.ownerOf(_tokenId) == _owner,\r\n            \"ERC721: Can't transfer a token the address does not own.\"\r\n        );\r\n        _;\r\n    }\r\n\r\n    function _mint(address to, uint256 tokenId)\r\n        internal\r\n        virtual\r\n        _exists(tokenId)\r\n    {\r\n        // requires address to be not zero\r\n        require(to != address(0), \"ERC721: mininting to the zero address\");\r\n        // adding new address with token id for minting\r\n        _tokenOwner[tokenId] = to;\r\n        // keeping track of each address that is minting\r\n        _ownedTokensCount[to] += 1;\r\n\r\n        emit Transfer(address(0), to, tokenId);\r\n    }\r\n\r\n    /// @notice Transfer ownership of an NFT -- THE CALLER IS RESPONSIBLE\r\n    ///  TO CONFIRM THAT `_to` IS CAPABLE OF RECEIVING NFTS OR ELSE\r\n    ///  THEY MAY BE PERMANENTLY LOST\r\n    /// @dev Throws unless `msg.sender` is the current owner, an authorized\r\n    ///  operator, or the approved address for this NFT. Throws if `_from` is\r\n    ///  not the current owner. Throws if `_to` is the zero address. Throws if\r\n    ///  `_tokenId` is not a valid NFT.\r\n    /// @param _from The current owner of the NFT\r\n    /// @param _to The new owner\r\n    /// @param _tokenId The NFT to transfer\r\n    function _transferFrom(\r\n        address _from,\r\n        address _to,\r\n        uint256 _tokenId\r\n    ) internal _token_exists_for_owner(_tokenId, _from) _invalid_address(_to) {\r\n        _ownedTokensCount[_from] -= 1;\r\n        _ownedTokensCount[_to] += 1;\r\n\r\n        _tokenOwner[_tokenId] = _to;\r\n\r\n        emit Transfer(_from, _to, _tokenId);\r\n    }\r\n\r\n    /// @notice Transfer ownership of an NFT -- THE CALLER IS RESPONSIBLE\r\n    ///  TO CONFIRM THAT `_to` IS CAPABLE OF RECEIVING NFTS OR ELSE\r\n    ///  THEY MAY BE PERMANENTLY LOST\r\n    /// @dev Throws unless `msg.sender` is the current owner, an authorized\r\n    ///  operator, or the approved address for this NFT. Throws if `_from` is\r\n    ///  not the current owner. Throws if `_to` is the zero address. Throws if\r\n    ///  `_tokenId` is not a valid NFT.\r\n    /// @param _from The current owner of the NFT\r\n    /// @param _to The new owner\r\n    /// @param _tokenId The NFT to transfer\r\n    function transferFrom(\r\n        address _from,\r\n        address _to,\r\n        uint256 _tokenId\r\n    )\r\n        public\r\n        payable\r\n        _token_exists_for_owner(_tokenId, _from)\r\n        _invalid_address(_to)\r\n    {\r\n        _transferFrom(_from, _to, _tokenId);\r\n    }\r\n\r\n    /// @notice Count all NFT's assigned to an owner\r\n    /// @dev NFTs assgined to the zero address are considered invaild\r\n    /// function throws for queries about the zero address\r\n    /// @param _owner An address for whom to query the balance\r\n    /// @return The number of NFT's owned by '_owner', possibly zero\r\n\r\n    function balanceOf(address _owner)\r\n        public\r\n        view\r\n        _invalid_address(_owner)\r\n        returns (uint256)\r\n    {\r\n        return _ownedTokensCount[_owner];\r\n    }\r\n\r\n    /// @notice Find the owner of an NFT\r\n    /// @dev NFTs assigned to zero address are considered invalid, and queries\r\n    ///  about them do throw.\r\n    /// @param _tokenId The identifier for an NFT\r\n    /// @return The address of the owner of the NFT\r\n    function ownerOf(uint256 _tokenId)\r\n        external\r\n        view\r\n        _invalid_address(_tokenOwner[_tokenId])\r\n        returns (address)\r\n    {\r\n        return _tokenOwner[_tokenId];\r\n    }\r\n\r\n}\r\n",
  "sourcePath": "E:\\Development\\_Personal\\Udemy\\Ethereum & Solidity\\ERC-721\\nft-marketplace-starter-kit-main\\src\\contracts\\ERC721.sol",
  "compiler": {
    "name": "solc",
    "version": "0.8.11+commit.d7f03943.Emscripten.clang"
  },
  "schemaVersion": "3.4.4",
  "updatedAt": "2022-01-23T08:23:51.391Z",
  "devdoc": {
    "kind": "dev",
    "methods": {
      "balanceOf(address)": {
        "details": "NFTs assgined to the zero address are considered invaild function throws for queries about the zero address",
        "params": {
          "_owner": "An address for whom to query the balance"
        },
        "returns": {
          "_0": "The number of NFT's owned by '_owner', possibly zero"
        }
      },
      "ownerOf(uint256)": {
        "details": "NFTs assigned to zero address are considered invalid, and queries  about them do throw.",
        "params": {
          "_tokenId": "The identifier for an NFT"
        },
        "returns": {
          "_0": "The address of the owner of the NFT"
        }
      },
      "transferFrom(address,address,uint256)": {
        "details": "Throws unless `msg.sender` is the current owner, an authorized  operator, or the approved address for this NFT. Throws if `_from` is  not the current owner. Throws if `_to` is the zero address. Throws if  `_tokenId` is not a valid NFT.",
        "params": {
          "_from": "The current owner of the NFT",
          "_to": "The new owner",
          "_tokenId": "The NFT to transfer"
        }
      }
    },
    "version": 1
  },
  "userdoc": {
    "kind": "user",
    "methods": {
      "balanceOf(address)": {
        "notice": "Count all NFT's assigned to an owner"
      },
      "ownerOf(uint256)": {
        "notice": "Find the owner of an NFT"
      },
      "transferFrom(address,address,uint256)": {
        "notice": "Transfer ownership of an NFT -- THE CALLER IS RESPONSIBLE  TO CONFIRM THAT `_to` IS CAPABLE OF RECEIVING NFTS OR ELSE  THEY MAY BE PERMANENTLY LOST"
      }
    },
    "version": 1
  }
}