{
  "contractName": "KryptoBird",
  "abi": [
    {
      "inputs": [],
      "stateMutability": "nonpayable",
      "type": "constructor"
    },
    {
      "anonymous": false,
      "inputs": [
        {
          "indexed": true,
          "internalType": "address",
          "name": "owner",
          "type": "address"
        },
        {
          "indexed": true,
          "internalType": "address",
          "name": "approved",
          "type": "address"
        },
        {
          "indexed": true,
          "internalType": "uint256",
          "name": "tokenId",
          "type": "uint256"
        }
      ],
      "name": "Approval",
      "type": "event"
    },
    {
      "anonymous": false,
      "inputs": [
        {
          "indexed": true,
          "internalType": "address",
          "name": "from",
          "type": "address"
        },
        {
          "indexed": true,
          "internalType": "address",
          "name": "to",
          "type": "address"
        },
        {
          "indexed": true,
          "internalType": "uint256",
          "name": "tokenId",
          "type": "uint256"
        }
      ],
      "name": "Transfer",
      "type": "event"
    },
    {
      "inputs": [
        {
          "internalType": "address",
          "name": "_owner",
          "type": "address"
        }
      ],
      "name": "balanceOf",
      "outputs": [
        {
          "internalType": "uint256",
          "name": "",
          "type": "uint256"
        }
      ],
      "stateMutability": "view",
      "type": "function",
      "constant": true
    },
    {
      "inputs": [
        {
          "internalType": "uint256",
          "name": "",
          "type": "uint256"
        }
      ],
      "name": "kryptoBirdz",
      "outputs": [
        {
          "internalType": "string",
          "name": "",
          "type": "string"
        }
      ],
      "stateMutability": "view",
      "type": "function",
      "constant": true
    },
    {
      "inputs": [],
      "name": "name",
      "outputs": [
        {
          "internalType": "string",
          "name": "",
          "type": "string"
        }
      ],
      "stateMutability": "view",
      "type": "function",
      "constant": true
    },
    {
      "inputs": [
        {
          "internalType": "uint256",
          "name": "_tokenId",
          "type": "uint256"
        }
      ],
      "name": "ownerOf",
      "outputs": [
        {
          "internalType": "address",
          "name": "",
          "type": "address"
        }
      ],
      "stateMutability": "view",
      "type": "function",
      "constant": true
    },
    {
      "inputs": [],
      "name": "symbol",
      "outputs": [
        {
          "internalType": "string",
          "name": "",
          "type": "string"
        }
      ],
      "stateMutability": "view",
      "type": "function",
      "constant": true
    },
    {
      "inputs": [
        {
          "internalType": "uint256",
          "name": "_index",
          "type": "uint256"
        }
      ],
      "name": "tokenByIndex",
      "outputs": [
        {
          "internalType": "uint256",
          "name": "",
          "type": "uint256"
        }
      ],
      "stateMutability": "view",
      "type": "function",
      "constant": true
    },
    {
      "inputs": [
        {
          "internalType": "address",
          "name": "_owner",
          "type": "address"
        },
        {
          "internalType": "uint256",
          "name": "_index",
          "type": "uint256"
        }
      ],
      "name": "tokenOfOwnerByIndex",
      "outputs": [
        {
          "internalType": "uint256",
          "name": "",
          "type": "uint256"
        }
      ],
      "stateMutability": "view",
      "type": "function",
      "constant": true
    },
    {
      "inputs": [],
      "name": "totalSupply",
      "outputs": [
        {
          "internalType": "uint256",
          "name": "",
          "type": "uint256"
        }
      ],
      "stateMutability": "view",
      "type": "function",
      "constant": true
    },
    {
      "inputs": [
        {
          "internalType": "address",
          "name": "_from",
          "type": "address"
        },
        {
          "internalType": "address",
          "name": "_to",
          "type": "address"
        },
        {
          "internalType": "uint256",
          "name": "_tokenId",
          "type": "uint256"
        }
      ],
      "name": "transferFrom",
      "outputs": [],
      "stateMutability": "payable",
      "type": "function",
      "payable": true
    },
    {
      "inputs": [
        {
          "internalType": "string",
          "name": "_kryptoBird",
          "type": "string"
        }
      ],
      "name": "mint",
      "outputs": [],
      "stateMutability": "nonpayable",
      "type": "function"
    }
  ],
  "bytecode": "0x60806040523480156200001157600080fd5b506040518060400160405280600a81526020017f4b727970746f42697264000000000000000000000000000000000000000000008152506040518060400160405280600681526020017f4b424952445a00000000000000000000000000000000000000000000000000008152508181816000908051906020019062000098929190620000bc565b508060019080519060200190620000b1929190620000bc565b5050505050620001d1565b828054620000ca906200019b565b90600052602060002090601f016020900481019282620000ee57600085556200013a565b82601f106200010957805160ff19168380011785556200013a565b828001600101855582156200013a579182015b82811115620001395782518255916020019190600101906200011c565b5b5090506200014991906200014d565b5090565b5b80821115620001685760008160009055506001016200014e565b5090565b7f4e487b7100000000000000000000000000000000000000000000000000000000600052602260045260246000fd5b60006002820490506001821680620001b457607f821691505b60208210811415620001cb57620001ca6200016c565b5b50919050565b611b1280620001e16000396000f3fe6080604052600436106100915760003560e01c80636352211e116100595780636352211e1461018257806370a08231146101bf57806393ab6e56146101fc57806395d89b4114610239578063d85d3d271461026457610091565b806306fdde031461009657806318160ddd146100c157806323b872dd146100ec5780632f745c59146101085780634f6ccce714610145575b600080fd5b3480156100a257600080fd5b506100ab61028d565b6040516100b891906111cd565b60405180910390f35b3480156100cd57600080fd5b506100d661031f565b6040516100e39190611208565b60405180910390f35b610106600480360381019061010191906112c1565b61032c565b005b34801561011457600080fd5b5061012f600480360381019061012a9190611314565b610499565b60405161013c9190611208565b60405180910390f35b34801561015157600080fd5b5061016c60048036038101906101679190611354565b6105ba565b6040516101799190611208565b60405180910390f35b34801561018e57600080fd5b506101a960048036038101906101a49190611354565b610692565b6040516101b69190611390565b60405180910390f35b3480156101cb57600080fd5b506101e660048036038101906101e191906113ab565b610774565b6040516101f39190611208565b60405180910390f35b34801561020857600080fd5b50610223600480360381019061021e9190611354565b61082f565b60405161023091906111cd565b60405180910390f35b34801561024557600080fd5b5061024e6108db565b60405161025b91906111cd565b60405180910390f35b34801561027057600080fd5b5061028b6004803603810190610286919061150d565b61096d565b005b60606000805461029c90611585565b80601f01602080910402602001604051908101604052809291908181526020018280546102c890611585565b80156103155780601f106102ea57610100808354040283529160200191610315565b820191906000526020600020905b8154815290600101906020018083116102f857829003601f168201915b5050505050905090565b6000600580549050905090565b80838073ffffffffffffffffffffffffffffffffffffffff163073ffffffffffffffffffffffffffffffffffffffff16636352211e846040518263ffffffff1660e01b815260040161037e9190611208565b602060405180830381865afa15801561039b573d6000803e3d6000fd5b505050506040513d601f19601f820116820180604052508101906103bf91906115cc565b73ffffffffffffffffffffffffffffffffffffffff1614610415576040517f08c379a000000000000000000000000000000000000000000000000000000000815260040161040c9061166b565b60405180910390fd5b83600073ffffffffffffffffffffffffffffffffffffffff168173ffffffffffffffffffffffffffffffffffffffff161415610486576040517f08c379a000000000000000000000000000000000000000000000000000000000815260040161047d906116fd565b60405180910390fd5b610491868686610a70565b505050505050565b60003073ffffffffffffffffffffffffffffffffffffffff166370a08231846040518263ffffffff1660e01b81526004016104d49190611390565b602060405180830381865afa1580156104f1573d6000803e3d6000fd5b505050506040513d601f19601f820116820180604052508101906105159190611732565b8210610556576040517f08c379a000000000000000000000000000000000000000000000000000000000815260040161054d906117ab565b60405180910390fd5b600760008473ffffffffffffffffffffffffffffffffffffffff1673ffffffffffffffffffffffffffffffffffffffff16815260200190815260200160002082815481106105a7576105a66117cb565b5b9060005260206000200154905092915050565b60003073ffffffffffffffffffffffffffffffffffffffff166318160ddd6040518163ffffffff1660e01b8152600401602060405180830381865afa158015610607573d6000803e3d6000fd5b505050506040513d601f19601f8201168201806040525081019061062b9190611732565b821061066c576040517f08c379a000000000000000000000000000000000000000000000000000000000815260040161066390611846565b60405180910390fd5b600582815481106106805761067f6117cb565b5b90600052602060002001549050919050565b60006002600083815260200190815260200160002060009054906101000a900473ffffffffffffffffffffffffffffffffffffffff16600073ffffffffffffffffffffffffffffffffffffffff168173ffffffffffffffffffffffffffffffffffffffff161415610738576040517f08c379a000000000000000000000000000000000000000000000000000000000815260040161072f906116fd565b60405180910390fd5b6002600084815260200190815260200160002060009054906101000a900473ffffffffffffffffffffffffffffffffffffffff16915050919050565b600081600073ffffffffffffffffffffffffffffffffffffffff168173ffffffffffffffffffffffffffffffffffffffff1614156107e7576040517f08c379a00000000000000000000000000000000000000000000000000000000081526004016107de906116fd565b60405180910390fd5b600360008473ffffffffffffffffffffffffffffffffffffffff1673ffffffffffffffffffffffffffffffffffffffff16815260200190815260200160002054915050919050565b6009818154811061083f57600080fd5b90600052602060002001600091509050805461085a90611585565b80601f016020809104026020016040519081016040528092919081815260200182805461088690611585565b80156108d35780601f106108a8576101008083540402835291602001916108d3565b820191906000526020600020905b8154815290600101906020018083116108b657829003601f168201915b505050505081565b6060600180546108ea90611585565b80601f016020809104026020016040519081016040528092919081815260200182805461091690611585565b80156109635780601f1061093857610100808354040283529160200191610963565b820191906000526020600020905b81548152906001019060200180831161094657829003601f168201915b5050505050905090565b600a8160405161097d91906118a2565b908152602001604051809103902060009054906101000a900460ff16156109d9576040517f08c379a00000000000000000000000000000000000000000000000000000000081526004016109d090611905565b60405180910390fd5b600981908060018154018082558091505060019003906000526020600020016000909190919091509080519060200190610a14929190611091565b5060006001600980549050610a299190611954565b9050610a353382610d2d565b6001600a83604051610a4791906118a2565b908152602001604051809103902060006101000a81548160ff0219169083151502179055505050565b80838073ffffffffffffffffffffffffffffffffffffffff163073ffffffffffffffffffffffffffffffffffffffff16636352211e846040518263ffffffff1660e01b8152600401610ac29190611208565b602060405180830381865afa158015610adf573d6000803e3d6000fd5b505050506040513d601f19601f82011682018060405250810190610b0391906115cc565b73ffffffffffffffffffffffffffffffffffffffff1614610b59576040517f08c379a0000000000000000000000000000000000000000000000000000000008152600401610b509061166b565b60405180910390fd5b83600073ffffffffffffffffffffffffffffffffffffffff168173ffffffffffffffffffffffffffffffffffffffff161415610bca576040517f08c379a0000000000000000000000000000000000000000000000000000000008152600401610bc1906116fd565b60405180910390fd5b6001600360008873ffffffffffffffffffffffffffffffffffffffff1673ffffffffffffffffffffffffffffffffffffffff1681526020019081526020016000206000828254610c1a9190611954565b925050819055506001600360008773ffffffffffffffffffffffffffffffffffffffff1673ffffffffffffffffffffffffffffffffffffffff1681526020019081526020016000206000828254610c719190611988565b92505081905550846002600086815260200190815260200160002060006101000a81548173ffffffffffffffffffffffffffffffffffffffff021916908373ffffffffffffffffffffffffffffffffffffffff160217905550838573ffffffffffffffffffffffffffffffffffffffff168773ffffffffffffffffffffffffffffffffffffffff167fddf252ad1be2c89b69c2b068fc378daa952ba7f163c4a11628f55a4df523b3ef60405160405180910390a4505050505050565b610d378282610d4e565b610d4081610f12565b610d4a8282610f5b565b5050565b80610d588161101f565b15610d98576040517f08c379a0000000000000000000000000000000000000000000000000000000008152600401610d8f90611a2a565b60405180910390fd5b600073ffffffffffffffffffffffffffffffffffffffff168373ffffffffffffffffffffffffffffffffffffffff161415610e08576040517f08c379a0000000000000000000000000000000000000000000000000000000008152600401610dff90611abc565b60405180910390fd5b826002600084815260200190815260200160002060006101000a81548173ffffffffffffffffffffffffffffffffffffffff021916908373ffffffffffffffffffffffffffffffffffffffff1602179055506001600360008573ffffffffffffffffffffffffffffffffffffffff1673ffffffffffffffffffffffffffffffffffffffff1681526020019081526020016000206000828254610eaa9190611988565b92505081905550818373ffffffffffffffffffffffffffffffffffffffff16600073ffffffffffffffffffffffffffffffffffffffff167fddf252ad1be2c89b69c2b068fc378daa952ba7f163c4a11628f55a4df523b3ef60405160405180910390a4505050565b6005805490506006600083815260200190815260200160002081905550600581908060018154018082558091505060019003906000526020600020016000909190919091505550565b600760008373ffffffffffffffffffffffffffffffffffffffff1673ffffffffffffffffffffffffffffffffffffffff168152602001908152602001600020805490506008600083815260200190815260200160002081905550600760008373ffffffffffffffffffffffffffffffffffffffff1673ffffffffffffffffffffffffffffffffffffffff1681526020019081526020016000208190806001815401808255809150506001900390600052602060002001600090919091909150555050565b6000806002600084815260200190815260200160002060009054906101000a900473ffffffffffffffffffffffffffffffffffffffff169050600073ffffffffffffffffffffffffffffffffffffffff168173ffffffffffffffffffffffffffffffffffffffff161415915050919050565b82805461109d90611585565b90600052602060002090601f0160209004810192826110bf5760008555611106565b82601f106110d857805160ff1916838001178555611106565b82800160010185558215611106579182015b828111156111055782518255916020019190600101906110ea565b5b5090506111139190611117565b5090565b5b80821115611130576000816000905550600101611118565b5090565b600081519050919050565b600082825260208201905092915050565b60005b8381101561116e578082015181840152602081019050611153565b8381111561117d576000848401525b50505050565b6000601f19601f8301169050919050565b600061119f82611134565b6111a9818561113f565b93506111b9818560208601611150565b6111c281611183565b840191505092915050565b600060208201905081810360008301526111e78184611194565b905092915050565b6000819050919050565b611202816111ef565b82525050565b600060208201905061121d60008301846111f9565b92915050565b6000604051905090565b600080fd5b600080fd5b600073ffffffffffffffffffffffffffffffffffffffff82169050919050565b600061126282611237565b9050919050565b61127281611257565b811461127d57600080fd5b50565b60008135905061128f81611269565b92915050565b61129e816111ef565b81146112a957600080fd5b50565b6000813590506112bb81611295565b92915050565b6000806000606084860312156112da576112d961122d565b5b60006112e886828701611280565b93505060206112f986828701611280565b925050604061130a868287016112ac565b9150509250925092565b6000806040838503121561132b5761132a61122d565b5b600061133985828601611280565b925050602061134a858286016112ac565b9150509250929050565b60006020828403121561136a5761136961122d565b5b6000611378848285016112ac565b91505092915050565b61138a81611257565b82525050565b60006020820190506113a56000830184611381565b92915050565b6000602082840312156113c1576113c061122d565b5b60006113cf84828501611280565b91505092915050565b600080fd5b600080fd5b7f4e487b7100000000000000000000000000000000000000000000000000000000600052604160045260246000fd5b61141a82611183565b810181811067ffffffffffffffff82111715611439576114386113e2565b5b80604052505050565b600061144c611223565b90506114588282611411565b919050565b600067ffffffffffffffff821115611478576114776113e2565b5b61148182611183565b9050602081019050919050565b82818337600083830152505050565b60006114b06114ab8461145d565b611442565b9050828152602081018484840111156114cc576114cb6113dd565b5b6114d784828561148e565b509392505050565b600082601f8301126114f4576114f36113d8565b5b813561150484826020860161149d565b91505092915050565b6000602082840312156115235761152261122d565b5b600082013567ffffffffffffffff81111561154157611540611232565b5b61154d848285016114df565b91505092915050565b7f4e487b7100000000000000000000000000000000000000000000000000000000600052602260045260246000fd5b6000600282049050600182168061159d57607f821691505b602082108114156115b1576115b0611556565b5b50919050565b6000815190506115c681611269565b92915050565b6000602082840312156115e2576115e161122d565b5b60006115f0848285016115b7565b91505092915050565b7f4552433732313a2043616e2774207472616e73666572206120746f6b656e207460008201527f6865206164647265737320646f6573206e6f74206f776e2e0000000000000000602082015250565b600061165560388361113f565b9150611660826115f9565b604082019050919050565b6000602082019050818103600083015261168481611648565b9050919050565b7f4552433732313a20496e76616c696420746f6b656e20666f722061646472657360008201527f73206f7220696e76616c69642061646472657373000000000000000000000000602082015250565b60006116e760348361113f565b91506116f28261168b565b604082019050919050565b60006020820190508181036000830152611716816116da565b9050919050565b60008151905061172c81611295565b92915050565b6000602082840312156117485761174761122d565b5b60006117568482850161171d565b91505092915050565b7f6f776e657220696e646578206973206f7574206f6620626f756e647300000000600082015250565b6000611795601c8361113f565b91506117a08261175f565b602082019050919050565b600060208201905081810360008301526117c481611788565b9050919050565b7f4e487b7100000000000000000000000000000000000000000000000000000000600052603260045260246000fd5b7f676c6f62616c20696e646578206973206f7574206f6620626f756e6473000000600082015250565b6000611830601d8361113f565b915061183b826117fa565b602082019050919050565b6000602082019050818103600083015261185f81611823565b9050919050565b600081905092915050565b600061187c82611134565b6118868185611866565b9350611896818560208601611150565b80840191505092915050565b60006118ae8284611871565b915081905092915050565b7f4572726f723a204b727970746f4269726420616c726561647920657869737473600082015250565b60006118ef60208361113f565b91506118fa826118b9565b602082019050919050565b6000602082019050818103600083015261191e816118e2565b9050919050565b7f4e487b7100000000000000000000000000000000000000000000000000000000600052601160045260246000fd5b600061195f826111ef565b915061196a836111ef565b92508282101561197d5761197c611925565b5b828203905092915050565b6000611993826111ef565b915061199e836111ef565b9250827fffffffffffffffffffffffffffffffffffffffffffffffffffffffffffffffff038211156119d3576119d2611925565b5b828201905092915050565b7f4552433732313a20546f6b656e20616c7265616479206d696e74656400000000600082015250565b6000611a14601c8361113f565b9150611a1f826119de565b602082019050919050565b60006020820190508181036000830152611a4381611a07565b9050919050565b7f4552433732313a206d696e696e74696e6720746f20746865207a65726f20616460008201527f6472657373000000000000000000000000000000000000000000000000000000602082015250565b6000611aa660258361113f565b9150611ab182611a4a565b604082019050919050565b60006020820190508181036000830152611ad581611a99565b905091905056fea2646970667358221220917a5afc874c16ecdff39657a82f37186d49bb7868fba29ddec60b48422df62d64736f6c634300080b0033",
  "immutableReferences": {},
  "source": "// SPDX-License-Identifier: MIT\r\npragma solidity ^0.8.0;\r\n\r\nimport \"./ERC721Connector.sol\";\r\n\r\ncontract KryptoBird is ERC721Connector {\r\n    // array to store NFT's\r\n    string[] public kryptoBirdz;\r\n\r\n    mapping(string => bool) _kryptoBirdzExists;\r\n\r\n    function mint(string memory _kryptoBird) public {\r\n        require(\r\n            !_kryptoBirdzExists[_kryptoBird],\r\n            \"Error: KryptoBird already exists\"\r\n        );\r\n\r\n        kryptoBirdz.push(_kryptoBird);\r\n        uint256 _id = kryptoBirdz.length - 1;\r\n\r\n        _mint(msg.sender, _id);\r\n\r\n        _kryptoBirdzExists[_kryptoBird] = true;\r\n    }\r\n\r\n    constructor() ERC721Connector(\"KryptoBird\", \"KBIRDZ\") {}\r\n}\r\n",
  "sourcePath": "E:\\Development\\_Personal\\Udemy\\Ethereum & Solidity\\ERC-721\\nft-marketplace-starter-kit-main\\src\\contracts\\KryptoBirds.sol",
  "compiler": {
    "name": "solc",
    "version": "0.8.11+commit.d7f03943.Emscripten.clang"
  },
  "schemaVersion": "3.4.4",
  "updatedAt": "2022-01-23T08:23:53.547Z",
  "networkType": "ethereum",
  "devdoc": {
    "kind": "dev",
    "methods": {
      "balanceOf(address)": {
        "details": "NFTs assgined to the zero address are considered invaild function throws for queries about the zero address",
        "params": {
          "_owner": "An address for whom to query the balance"
        },
        "returns": {
          "_0": "The number of NFT's owned by '_owner', possibly zero"
        }
      },
      "ownerOf(uint256)": {
        "details": "NFTs assigned to zero address are considered invalid, and queries  about them do throw.",
        "params": {
          "_tokenId": "The identifier for an NFT"
        },
        "returns": {
          "_0": "The address of the owner of the NFT"
        }
      },
      "tokenByIndex(uint256)": {
        "details": "Throws if `_index` >= `totalSupply()`.",
        "params": {
          "_index": "A counter less than `totalSupply()`"
        },
        "returns": {
          "_0": "The token identifier for the `_index`th NFT,  (sort order not specified)"
        }
      },
      "tokenOfOwnerByIndex(address,uint256)": {
        "details": "Throws if `_index` >= `balanceOf(_owner)` or if  `_owner` is the zero address, representing invalid NFTs.",
        "params": {
          "_index": "A counter less than `balanceOf(_owner)`",
          "_owner": "An address where we are interested in NFTs owned by them"
        },
        "returns": {
          "_0": "The token identifier for the `_index`th NFT assigned to `_owner`,   (sort order not specified)"
        }
      },
      "totalSupply()": {
        "returns": {
          "_0": "A count of valid NFTs tracked by this contract, where each one of  them has an assigned and queryable owner not equal to the zero address"
        }
      },
      "transferFrom(address,address,uint256)": {
        "details": "Throws unless `msg.sender` is the current owner, an authorized  operator, or the approved address for this NFT. Throws if `_from` is  not the current owner. Throws if `_to` is the zero address. Throws if  `_tokenId` is not a valid NFT.",
        "params": {
          "_from": "The current owner of the NFT",
          "_to": "The new owner",
          "_tokenId": "The NFT to transfer"
        }
      }
    },
    "version": 1
  },
  "userdoc": {
    "kind": "user",
    "methods": {
      "balanceOf(address)": {
        "notice": "Count all NFT's assigned to an owner"
      },
      "ownerOf(uint256)": {
        "notice": "Find the owner of an NFT"
      },
      "tokenByIndex(uint256)": {
        "notice": "Enumerate valid NFTs"
      },
      "tokenOfOwnerByIndex(address,uint256)": {
        "notice": "Enumerate NFTs assigned to an owner"
      },
      "totalSupply()": {
        "notice": "Count NFTs tracked by this contract"
      },
      "transferFrom(address,address,uint256)": {
        "notice": "Transfer ownership of an NFT -- THE CALLER IS RESPONSIBLE  TO CONFIRM THAT `_to` IS CAPABLE OF RECEIVING NFTS OR ELSE  THEY MAY BE PERMANENTLY LOST"
      }
    },
    "version": 1
  }
}